{
  "contractName": "Creator",
  "abi": [
    {
      "constant": false,
      "inputs": [
        {
          "name": "_timeLimit",
          "type": "uint32"
        },
        {
          "name": "_ballotType",
          "type": "uint8"
        },
        {
          "name": "_voteLimit",
          "type": "uint8"
        },
        {
          "name": "_ballotId",
          "type": "uint32"
        },
        {
          "name": "_title",
          "type": "string"
        },
        {
          "name": "_whitelisted",
          "type": "uint8"
        }
      ],
      "name": "createBallot",
      "outputs": [],
      "payable": false,
      "stateMutability": "nonpayable",
      "type": "function"
    },
    {
      "constant": true,
      "inputs": [
        {
          "name": "id",
          "type": "uint32"
        }
      ],
      "name": "getAddress",
      "outputs": [
        {
          "name": "contractAddress",
          "type": "address"
        }
      ],
      "payable": false,
      "stateMutability": "view",
      "type": "function"
    }
  ],
  "bytecode": "0x608060405234801561001057600080fd5b506118dd806100206000396000f30060806040526004361061004c576000357c0100000000000000000000000000000000000000000000000000000000900463ffffffff168063550da4781461005157806368501aee14610101575b600080fd5b34801561005d57600080fd5b506100ff600480360381019080803563ffffffff169060200190929190803560ff169060200190929190803560ff169060200190929190803563ffffffff169060200190929190803590602001908201803590602001908080601f0160208091040260200160405190810160405280939291908181526020018383808284378201915050505050509192919290803560ff169060200190929190505050610174565b005b34801561010d57600080fd5b50610132600480360381019080803563ffffffff16906020019092919050505061035c565b604051808273ffffffffffffffffffffffffffffffffffffffff1673ffffffffffffffffffffffffffffffffffffffff16815260200191505060405180910390f35b600033600160006101000a81548173ffffffffffffffffffffffffffffffffffffffff021916908373ffffffffffffffffffffffffffffffffffffffff160217905550868686868686600160009054906101000a900473ffffffffffffffffffffffffffffffffffffffff166101e86103a4565b808863ffffffff1663ffffffff1681526020018760ff1660ff1681526020018660ff1660ff1681526020018563ffffffff1663ffffffff168152602001806020018460ff1660ff1681526020018373ffffffffffffffffffffffffffffffffffffffff1673ffffffffffffffffffffffffffffffffffffffff168152602001828103825285818151815260200191508051906020019080838360005b8381101561029f578082015181840152602081019050610284565b50505050905090810190601f1680156102cc5780820380516001836020036101000a031916815260200191505b5098505050505050505050604051809103906000f0801580156102f3573d6000803e3d6000fd5b509050806000808663ffffffff1663ffffffff16815260200190815260200160002060006101000a81548173ffffffffffffffffffffffffffffffffffffffff021916908373ffffffffffffffffffffffffffffffffffffffff16021790555050505050505050565b60008060008363ffffffff1663ffffffff16815260200190815260200160002060009054906101000a900473ffffffffffffffffffffffffffffffffffffffff169050919050565b6040516114fd806103b583390190560060806040523480156200001157600080fd5b50604051620014fd380380620014fd8339810180604052810190808051906020019092919080519060200190929190805190602001909291908051906020019092919080518201929190602001805190602001909291908051906020019092919050505086600560000160066101000a81548163ffffffff021916908363ffffffff16021790555085600560000160006101000a81548160ff021916908360ff16021790555084600560000160056101000a81548160ff021916908360ff16021790555083600560000160016101000a81548163ffffffff021916908363ffffffff16021790555082600560010190805190602001906200011492919062000181565b5081600560020160006101000a81548160ff021916908360ff16021790555080601060006101000a81548173ffffffffffffffffffffffffffffffffffffffff021916908373ffffffffffffffffffffffffffffffffffffffff1602179055505050505050505062000230565b828054600181600116156101000203166002900490600052602060002090601f016020900481019282601f10620001c457805160ff1916838001178555620001f5565b82800160010185558215620001f5579182015b82811115620001f4578251825591602001919060010190620001d7565b5b50905062000204919062000208565b5090565b6200022d91905b80821115620002295760008160009055506001016200020f565b5090565b90565b6112bd80620002406000396000f3006080604052600436106100d0576000357c0100000000000000000000000000000000000000000000000000000000900463ffffffff16806306f2057a146100d55780632f265cf714610104578063392e6678146101495780635374be8f14610192578063555a1ad6146101db5780635b9eb761146102125780636cfd8b82146102415780636ec4847a14610258578063922133e314610287578063a711b878146102cc578063b8381c7814610358578063c9ccaea1146103be578063d05841a014610475578063ff3c1a8f146104db575b600080fd5b3480156100e157600080fd5b506100ea61056b565b604051808215151515815260200191505060405180910390f35b34801561011057600080fd5b50610133600480360381019080803560001916906020019092919050505061059c565b6040518082815260200191505060405180910390f35b34801561015557600080fd5b506101786004803603810190808035600019169060200190929190505050610612565b604051808215151515815260200191505060405180910390f35b34801561019e57600080fd5b506101c160048036038101908080356000191690602001909291905050506106a0565b604051808215151515815260200191505060405180910390f35b3480156101e757600080fd5b506101f0610712565b604051808263ffffffff1663ffffffff16815260200191505060405180910390f35b34801561021e57600080fd5b5061022761072f565b604051808215151515815260200191505060405180910390f35b34801561024d57600080fd5b50610256610766565b005b34801561026457600080fd5b5061026d610957565b604051808215151515815260200191505060405180910390f35b34801561029357600080fd5b506102b660048036038101908080356000191690602001909291905050506109d9565b6040518082815260200191505060405180910390f35b3480156102d857600080fd5b50610301600480360381019080803567ffffffffffffffff169060200190929190505050610a1a565b6040518080602001828103825283818151815260200191508051906020019060200280838360005b83811015610344578082015181840152602081019050610329565b505050509050019250505060405180910390f35b34801561036457600080fd5b506103bc60048036038101908080359060200190820180359060200190808060200260200160405190810160405280939291908181526020018383602002808284378201915050505050509192919290505050610a94565b005b3480156103ca57600080fd5b5061047360048036038101908080359060200190820180359060200190808060200260200160405190810160405280939291908181526020018383602002808284378201915050505050509192919290803560001916906020019092919080359060200190820180359060200190808060200260200160405190810160405280939291908181526020018383602002808284378201915050505050509192919290505050610b6a565b005b34801561048157600080fd5b506104d960048036038101908080359060200190820180359060200190808060200260200160405190810160405280939291908181526020018383602002808284378201915050505050509192919290505050610d3e565b005b3480156104e757600080fd5b506104f0610e13565b6040518080602001828103825283818151815260200191508051906020019080838360005b83811015610530578082015181840152602081019050610515565b50505050905090810190601f16801561055d5780820380516001836020036101000a031916815260200191505b509250505060405180910390f35b60006001600560020160009054906101000a900460ff1660ff1614156105945760019050610599565b600090505b90565b60008015156105a9610eb8565b15151480156105c35750600115156105bf61072f565b1515145b156105d1576000905061060d565b600015156105de83610612565b151514156105eb57600080fd5b6000600201600083600019166000191681526020019081526020016000205490505b919050565b600080600090505b600080018054905081101561069557600080018181548110151561063a57fe5b9060005260206000200154600a8160001916905550826000191660006001016000600a546000191660001916815260200190815260200160002054600019161415610688576001915061069a565b808060010191505061061a565b600091505b50919050565b600080600090505b600360000180549050811015610707576003600001818154811015156106ca57fe5b9060005260206000200154600f81600019169055508260001916600f546000191614156106fa576001915061070c565b80806001019150506106a8565b600091505b50919050565b6000600560000160069054906101000a900463ffffffff16905090565b6000600560000160069054906101000a900463ffffffff1663ffffffff164210151561075e5760009050610763565b600190505b90565b6000601060009054906101000a900473ffffffffffffffffffffffffffffffffffffffff1673ffffffffffffffffffffffffffffffffffffffff163373ffffffffffffffffffffffffffffffffffffffff161415156107c457600080fd5b6001600b81905550600090505b60008001805490508110156109545760008001818154811015156107f157fe5b9060005260206000200154600a8160001916905550610811600a54610ee9565b60089080519060200190610826929190611127565b50600860405180828054600181600116156101000203166002900480156108845780601f10610862576101008083540402835291820191610884565b820191906000526020600020905b815481529060010190602001808311610870575b5050915050604051809103902060006001016000600a54600019166000191681526020019081526020016000208160001916905550600b5460006002016000600860405180828054600181600116156101000203166002900480156109205780601f106108fe576101008083540402835291820191610920565b820191906000526020600020905b81548152906001019060200180831161090c575b50509150506040518091039020600019166000191681526020019081526020016000208190555080806001019150506107d1565b50565b6000600560000160059054906101000a900460ff1660ff16600360010160003373ffffffffffffffffffffffffffffffffffffffff1673ffffffffffffffffffffffffffffffffffffffff16815260200190815260200160002060009054906101000a900460ff1660ff1614156109d157600090506109d6565b600190505b90565b60008015156109e783610612565b151514156109f457600080fd5b600060020160008360001916600019168152602001908152602001600020549050919050565b606060001515610a29836110e5565b15151415610a3657600080fd5b60008001805480602002602001604051908101604052809291908181526020018280548015610a8857602002820191906000526020600020905b81546000191681526020019060010190808311610a70575b50505050509050919050565b6000601060009054906101000a900473ffffffffffffffffffffffffffffffffffffffff1673ffffffffffffffffffffffffffffffffffffffff163373ffffffffffffffffffffffffffffffffffffffff16141515610af257600080fd5b600090505b8151811015610b66578181815181101515610b0e57fe5b90602001906020020151600f81600019169055506003600001600f5490806001815401808255809150509060018203906000526020600020016000909192909190915090600019169055508080600101915050610af7565b5050565b6000801515610b7761072f565b15151480610b90575060001515610b8c610957565b1515145b15610b9a57600080fd5b60011515610ba661056b565b1515148015610bc1575060001515610bbd846106a0565b1515145b15610bcb57600080fd5b83600d9080519060200190610be19291906111a7565b5081600e9080519060200190610bf89291906111f4565b506001600360010160003373ffffffffffffffffffffffffffffffffffffffff1673ffffffffffffffffffffffffffffffffffffffff16815260200190815260200160002060008282829054906101000a900460ff160192506101000a81548160ff021916908360ff160217905550600090505b600e80549050811015610d3857600e81815481101515610c8857fe5b9060005260206000200154600a816000191690555060006001016000600a546000191660001916815260200190815260200160002054600c816000191690555060001515610cd7600c54610612565b15151415610ce457600080fd5b600d81815481101515610cf357fe5b9060005260206000200154600b81905550600b5460006002016000600c5460001916600019168152602001908152602001600020819055508080600101915050610c6c565b50505050565b6000601060009054906101000a900473ffffffffffffffffffffffffffffffffffffffff1673ffffffffffffffffffffffffffffffffffffffff163373ffffffffffffffffffffffffffffffffffffffff16141515610d9c57600080fd5b600090505b8151811015610e0f578181815181101515610db857fe5b90602001906020020151600a816000191690555060008001600a5490806001815401808255809150509060018203906000526020600020016000909192909190915090600019169055508080600101915050610da1565b5050565b606060056001018054600181600116156101000203166002900480601f016020809104026020016040519081016040528092919081815260200182805460018160011615610100020316600290048015610eae5780601f10610e8357610100808354040283529160200191610eae565b820191906000526020600020905b815481529060010190602001808311610e9157829003601f168201915b5050505050905090565b60006001600560000160009054906101000a900460ff1660ff161415610ee15760009050610ee6565b600190505b90565b6060806000806000606060206040519080825280601f01601f191660200182016040528015610f275781602001602082028038833980820191505090505b50945060009350600092505b6020831015610ff1578260080260020a876001900402600102915060007f010000000000000000000000000000000000000000000000000000000000000002827effffffffffffffffffffffffffffffffffffffffffffffffffffffffffffff1916141515610fe457818585815181101515610fab57fe5b9060200101907effffffffffffffffffffffffffffffffffffffffffffffffffffffffffffff1916908160001a90535083806001019450505b8280600101935050610f33565b836040519080825280601f01601f1916602001820160405280156110245781602001602082028038833980820191505090505b509050600092505b838310156110d857848381518110151561104257fe5b9060200101517f010000000000000000000000000000000000000000000000000000000000000090047f010000000000000000000000000000000000000000000000000000000000000002818481518110151561109b57fe5b9060200101907effffffffffffffffffffffffffffffffffffffffffffffffffffffffffffff1916908160001a905350828060010193505061102c565b8095505050505050919050565b6000600560000160019054906101000a900463ffffffff1663ffffffff168267ffffffffffffffff16141561111d5760019050611122565b600090505b919050565b828054600181600116156101000203166002900490600052602060002090601f016020900481019282601f1061116857805160ff1916838001178555611196565b82800160010185558215611196579182015b8281111561119557825182559160200191906001019061117a565b5b5090506111a39190611247565b5090565b8280548282559060005260206000209081019282156111e3579160200282015b828111156111e25782518255916020019190600101906111c7565b5b5090506111f09190611247565b5090565b828054828255906000526020600020908101928215611236579160200282015b82811115611235578251829060001916905591602001919060010190611214565b5b509050611243919061126c565b5090565b61126991905b8082111561126557600081600090555060010161124d565b5090565b90565b61128e91905b8082111561128a576000816000905550600101611272565b5090565b905600a165627a7a723058204b61ee51f23f410333049e538a5a21fc317f4541946c8ee50c033a86e7dc40af0029a165627a7a72305820a6cc1978dfa0f4b47fe07d98fcd09a9fc2c16622d05df8cb4a38e6988801bbfb0029",
  "source": "pragma solidity ^0.4.19;\n\ncontract Voting {\n\n    struct Ballot {\n        uint8 ballotType;\n        uint32 ballotId;\n        uint8 voteLimit;\n        uint32 timeLimit;\n        string title;\n        uint8 whitelist;\n    }\n\n    struct Candidates {\n        bytes32[] candidateList;\n        mapping (bytes32 => bytes32) candidateHash;\n        mapping (bytes32 => uint256) votesReceived;\n    }\n\n    struct Voter {\n        bytes32[] whitelisted;\n        mapping (address => uint8) attemptedVotes;\n    }\n\n    Candidates c;\n    Voter v;\n    Ballot b;\n\n    string convertCandidate;\n    string tempTitle;\n    bytes32 tempCandidate;\n    uint256 tempVote;\n    bytes32 tempHash;\n    uint256[] tempVotes;\n    bytes32[] tempCandidates;\n    bytes32 tempEmail;\n    address owner;\n\n    function Voting(uint32 _timeLimit, uint8 _ballotType, uint8 _voteLimit, uint32 _ballotId, string _title, uint8 _whitelist, address _owner) public {\n        b.timeLimit = _timeLimit;\n        b.ballotType = _ballotType;\n        b.voteLimit = _voteLimit;\n        b.ballotId = _ballotId;\n        b.title = _title;\n        b.whitelist = _whitelist;\n\n        owner = _owner;\n    }\n\n    modifier onlyOwner {\n        require(msg.sender == owner);\n        _;\n    }\n\n    function setCandidates(bytes32[] _candidates) public onlyOwner {\n        for(uint i = 0; i < _candidates.length; i++) {\n            tempCandidate = _candidates[i];\n            c.candidateList.push(tempCandidate);\n        }\n    }\n\n    function setWhitelisted(bytes32[] _emails) public onlyOwner {\n        for(uint i = 0; i < _emails.length; i++) {\n            tempEmail = _emails[i];\n            v.whitelisted.push(tempEmail);\n        }\n    }\n\n    function hashCandidates() public onlyOwner {\n        tempVote = 1;\n        for(uint i = 0; i < c.candidateList.length; i++) {\n            tempCandidate = c.candidateList[i];\n            convertCandidate = bytes32ToString(tempCandidate);\n            c.candidateHash[tempCandidate] = keccak256(convertCandidate);\n            c.votesReceived[keccak256(convertCandidate)] = tempVote;\n        }\n    }\n\n    function voteForCandidate(uint256[] _votes, bytes32 _email, bytes32[] _candidates) public {\n        if (checkTimelimit() == false || checkVoteattempts() == false) revert();\n        if (checkWhitelist() == true && checkifWhitelisted(_email) == false) revert();\n        tempVotes = _votes;\n        tempCandidates = _candidates;\n        v.attemptedVotes[msg.sender] += 1;\n\n        for(uint i = 0; i < tempCandidates.length; i++) {\n            tempCandidate = tempCandidates[i];\n            tempHash = c.candidateHash[tempCandidate];\n            if (validCandidate(tempHash) == false) revert();\n            tempVote = tempVotes[i];\n            c.votesReceived[tempHash] = tempVote;\n        }\n    }\n\n    function votesFor(bytes32 cHash) public view returns (uint256){\n        if (validCandidate(cHash) == false) revert();\n        return c.votesReceived[cHash];\n    }\n\n    function totalVotesFor(bytes32 cHash) public view returns (uint256){\n        if (checkBallottype() == false && checkTimelimit() == true) return 0;\n        if (validCandidate(cHash) == false) revert();\n        return c.votesReceived[cHash];\n    }\n\n    function bytes32ToString(bytes32 x) private pure returns (string) {\n        bytes memory bytesString = new bytes(32);\n        uint charCount = 0;\n        for (uint j = 0; j < 32; j++) {\n            byte char = byte(bytes32(uint(x) * 2 ** (8 * j)));\n            if (char != 0) {\n                bytesString[charCount] = char;\n                charCount++;\n            }\n        }\n        bytes memory bytesStringTrimmed = new bytes(charCount);\n        for (j = 0; j < charCount; j++) {\n            bytesStringTrimmed[j] = bytesString[j];\n        }\n        return string(bytesStringTrimmed);\n    }\n\n    function validCandidate(bytes32 cHash) public view returns (bool) {\n        for(uint k = 0; k < c.candidateList.length; k++) {\n            tempCandidate = c.candidateList[k];\n            if (c.candidateHash[tempCandidate] == cHash) {\n                return true;\n            }\n        }\n        return false;\n    }\n\n    function candidateList(uint64 _ballotID) public view returns (bytes32[]) {\n        if (checkballotID(_ballotID) == false) revert();\n        return c.candidateList;\n    }\n\n    function checkTimelimit() public view returns (bool) {\n        if (block.timestamp >= b.timeLimit) return false;\n        else return true;\n    }\n\n    function checkBallottype() private view returns (bool) {\n        if (b.ballotType == 1) return false;\n        else return true;\n    }\n\n    function checkballotID(uint64 ballotID) private view returns (bool) {\n        if (ballotID == b.ballotId) return true;\n        else return false;\n    }\n\n    function checkVoteattempts() public view returns (bool) {\n        if (v.attemptedVotes[msg.sender] == b.voteLimit) return false;\n        else return true;\n    }\n\n    function checkWhitelist() public view returns (bool) {\n        if (b.whitelist == 1) return true;\n        else return false;\n    }\n\n    function checkifWhitelisted(bytes32 email) public view returns (bool) {\n        for(uint j = 0; j < v.whitelisted.length; j++) {\n            tempEmail = v.whitelisted[j];\n            if (tempEmail == email) {\n                return true;\n            }\n        }\n        return false;\n    }\n\n    function getTimelimit() public view returns (uint32) {\n        return b.timeLimit;\n    }\n\n    function getTitle() public view returns (string) {\n        return b.title;\n    }\n}\n\n//                         //\n//Start of Creator contract//\n//                         //\n\ncontract Creator {\n\n    mapping (uint32 => address) contracts;\n    address owner;\n\n    function createBallot(uint32 _timeLimit, uint8 _ballotType, uint8 _voteLimit, uint32 _ballotId, string _title, uint8 _whitelisted) public {\n        owner = msg.sender;\n        address newContract = new Voting(_timeLimit, _ballotType, _voteLimit, _ballotId, _title, _whitelisted, owner);\n        contracts[_ballotId] = newContract;\n    }\n\n    function getAddress(uint32 id) public view returns(address contractAddress) {\n        return contracts[id];\n    }\n}\n",
  "sourcePath": "/home/bc/Eleicao/contracts/Creator.sol",
  "compiler": {
    "name": "solc",
    "version": "0.4.24+commit.e67f0147.Emscripten.clang"
  },
  "schemaVersion": "2.0.1",
  "updatedAt": "2019-03-22T14:27:39.691Z"
}